:020000040800F2
:10000000100F002021020008AD1D0008511C00083F
:10001000A91D00083B0600087D2300080000000021
:10002000000000000000000000000000B31D0008F8
:100030003F06000800000000B11D0008B51D0008C3
:100040003B0200083B0200083B0200083B0200089C
:100050003B0200083B0200083B0200083B0200088C
:100060003B0200083B0200083B0200083B0200087C
:100070003B0200083B0200083B0200083B0200086C
:100080003B0200083B0200083B0200083B0200085C
:100090003B0200083B0200083B0200083B0200084C
:1000A0003B0200083B0200083B0200083B0200083C
:1000B0003B0200083B0200083B0200083B0200082C
:1000C0003B0200083B0200083B0200083B0200081C
:1000D0003B0200083B0200083B0200086D230008B9
:1000E0003B0200083B0200083B0200083B020008FC
:1000F0003B0200083B0200083B0200083B020008EC
:100100003B0200083B020008291E00083B020008D1
:100110003B0200083B0200083B0200083B020008CB
:100120003B0200083B0200083B0200083B020008BB
:100130003B02000800000000000000003B02000835
:100140003B0200083B0200083B0200083B0200089B
:100150003B0200083B0200083B0200083B0200088B
:100160003B0200083B0200083B0200083B0200087B
:100170003B0200083B0200080000000000000000F5
:100180003B02000800F002F800F03AF80AA090E8FC
:10019000000C82448344AAF10107DA4501D100F042
:1001A0002FF8AFF2090EBAE80F0013F0010F18BFD5
:1001B000FB1A43F0010318473032000050320000B0
:1001C000103A24BF78C878C1FAD8520724BF30C883
:1001D00030C144BF04680C60704700000023002455
:1001E00000250026103A28BF78C1FBD8520728BF47
:1001F00030C148BF0B6070471FB51FBD10B510BDA3
:1002000000F0B2F91146FFF7F7FF02F095FD00F09C
:10021000D0F903B4FFF7F2FF03BC00F097F9000038
:100220000948804709480047FEE7FEE7FEE7FEE78A
:10023000FEE7FEE7FEE7FEE7FEE7FEE704480549C6
:10024000054A064B70470000251E0008850100087E
:1002500010030020100F00201007002010070020BE
:1002600053EA020C00F069802DE9F04B4FF00006D4
:10027000002B1FBFB3FA83F503FA05F424FA05F641
:100280005E4012BF1643B2FA82F502FA05F4C5F1D8
:1002900020051EBF22FA05FC44EA0C04203556EA6C
:1002A000044C4FEA144418BF641C4FF000084FF090
:1002B0000009904271EB030C39D3002919BFB1FA40
:1002C00081F701FA07F6B0FA80F700FA07F6C7F1EE
:1002D00020071EBF20FA07FC46EA0C062037B6FBB3
:1002E000F4FCA7EB0507103F07F01F0BCBF120062E
:1002F0000CFA0BFB2CFA06F644BFB3460026202F5F
:10030000A4BF5E464FF0000B5BEA060C08BF4FF03F
:10031000010B19EB0B09ABFB027C48EB0608C01B79
:1003200006FB02CC0BFB03CC71EB0C01C1E70B46C7
:10033000024641464846BDE8F08B13B54FF0000039
:100340004FF00001AFF30080BDE81C407047000093
:100350000EB5054614460E4613A000F0B3F8284625
:1003600000F0B0F816A000F0ADF8304600F0AAF8A2
:1003700015A000F0A7F800218DF80B100A210DF14F
:100380000A008DF80A1008E094FBF1F201FB12421A
:1003900094FBF1F4303200F8012D002CF4DC00F075
:1003A00091F800F084F800002A2A2A20617373650E
:1003B0007274696F6E206661696C65643A20000032
:1003C0002C2066696C6520002C206C696E6520000D
:1003D000032A40F2308010F0030C00F0158011F871
:1003E000013BBCF1020F624498BF11F801CB00F849
:1003F000013B38BF11F8013BA2F1040298BF00F89D
:1004000001CB38BF00F8013B11F0030300F064801A
:10041000083AC0F0088051F8043B083A51F804CB80
:10042000A0E80810F5E7121D5CBF51F8043B40F846
:10043000043BAFF30080D20724BF11F8013B11F851
:1004400001CB48BF11F8012B24BF00F8013B00F895
:1004500001CB48BF00F8012B70474FF0000200B5F8
:10046000134694469646203922BFA0E80C50A0E8D7
:100470000C50B1F12001BFF4F7AF090728BFA0E885
:100480000C5048BF0CC05DF804EB890028BF40F851
:10049000042B08BF704748BF20F8022B11F0804F93
:1004A00018BF00F8012B704770477047704710B5B0
:1004B000002000F051F8FFF7A1FEBDE81040012038
:1004C00000F044B810B5044602E0641C00F036F8B1
:1004D00020780028F9D110BD10B5203AC0F00B806B
:1004E000B1E81850203AA0E81850B1E81850A0E838
:1004F0001850BFF4F5AF5FEA027C24BFB1E8185092
:10050000A0E8185044BF18C918C0BDE810405FEA01
:10051000827C24BF51F8043B40F8043B08BF70477D
:10052000D20728BF31F8023B48BF11F8012B28BF82
:1005300020F8023B48BF00F8012B704708B5694618
:100540008DF800000320ABBE08BD00000149182053
:10055000ABBEFEE72600020010B500F039F8BDE89A
:10056000104000F02FB87047754600F049F8AE46CD
:1005700005006946534620F00700854618B020B5AF
:10058000FFF75CFEBDE820404FF000064FF000078B
:100590004FF000084FF0000B21F00701AC46ACE82B
:1005A000C009ACE8C009ACE8C009ACE8C0098D4698
:1005B000704710B50446AFF300802046BDE81040F8
:1005C000FFF727BE002801D0FFF7C0BF704700002B
:1005D00010B5002102A000F017F8012010BD0000A6
:1005E000534947414252543A2041626E6F726D61E5
:1005F0006C207465726D696E6174696F6E000000C5
:1006000000487047AC02002070B505460C460A2031
:1006100000E06D1CFFF792FF35B128780028F8D173
:1006200002E0641CFFF78AFF14B120780028F8D19B
:10063000BDE870400A20FFF781BF00BFFEE77047AA
:1006400072B603480068401C01490860704700000A
:10065000E800002072B600BFFEE700000448006812
:10066000401E034908600846006800B962B670473A
:10067000E800002070B50446A56D00F069F9064653
:1006800094F83500022808D08020606500BF002063
:1006900084F8340000BF012070BD2068006820F09D
:1006A0001600216808602068406920F080002168F9
:1006B0004861206C08B9A06C28B12068006820F05F
:1006C0000800216808602068006820F001002168A7
:1006D000086010E000F03CF9801B05280BD92020B1
:1006E0006065032084F8350000BF002084F83400E2
:1006F00000BF0320D0E72068006800F00100002858
:10070000E8D194F85C103F208840A860012084F86C
:10071000350000BF002084F8340000BF00BFBBE7F5
:10072000014691F83500022803D080204865012059
:100730007047052081F835000868006820F0010046
:100740000A6810600020F3E778B502460B460021E6
:10075000D9E001268E401D6805EA0604002C74D0FD
:100760001D7905F00305012D04D01D7905F0030561
:10077000022D13D190684E000325B540A8434E00CA
:10078000DD68B54028439060506801258D40A8433E
:100790001D79C5F300158D40284350601D7905F083
:1007A0000305032D09D0D0684E000325B540A843AA
:1007B0004E009D68B5402843D0601D7905F00305C3
:1007C000022D13D1CE0802F1200555F826004D0761
:1007D000EE0E0F25B540A8434E07F60E1D69B54035
:1007E0002843CE0802F1200545F8260010684E0087
:1007F0000325B540A8431D7905F003054E00B5401B
:10080000284310605D6805F44035002D7AD000BFA4
:10081000002500953F4D2D6845F480453D4E3560DF
:1008200035462D6805F48045009500BF00BF3A4D60
:100830008E0855F826008D072E0F0F25B540A843CA
:10084000364DAA4202D1002529E05BE0344DAA4290
:1008500001D1012523E0334DAA4201D102251EE03A
:10086000314DAA4201D1032519E0304DAA4201D1F0
:10087000042514E02E4DAA4201D105250FE02D4D8F
:10088000AA4201D106250AE02B4DAA4201D1072533
:1008900005E02A4DAA4201D1082500E009258E076E
:1008A000360FB54028431C4D8E0845F82600244DD0
:1008B0002868A0435D6805F4803505B12043204DCC
:1008C00028602D1D2868A0435D6805F4003505B13A
:1008D00020431B4D2D1D28602D1D2868A0435D68F9
:1008E00005F4801505B12043154D083528602D1DF0
:1008F0002868A0435D6805F4001505B12043104D3C
:100900000C352860491C1D68CD40002D7FF421AFB7
:1009100078BD000044380240083801400000024021
:100920000004024000080240000C02400010024097
:100930000014024000180240001C02400020024047
:10094000003C01400AB1816101E00B048361704702
:100950000148006870470000140000200348006848
:1009600003490978084401490860704714000020D1
:100970001C00002010B50D48006840F400700B49C1
:1009800008600846006840F4806008600846006817
:1009900040F480700860032000F0A2F80F2000F0FF
:1009A00007F800F02BF8002010BD0000003C0240CA
:1009B00070B504460E4800784FF47A71B1FBF0F040
:1009C0000C490968B1FBF0F5284600F0F1FB08B1CD
:1009D000012070BD102C07D200222146501E00F0CD
:1009E00041F80548046001E00120F2E70020F0E74B
:1009F0001C000020200000201800002008B500BFC7
:100A0000002000900E48006840F480400C490860C7
:100A10000846006800F48040009000BF00BF00BF9F
:100A200000200090081F006840F08050091F0860F7
:100A30000846006800F08050009000BF00BF08BD6D
:100A40004438024001460846002809DB00F01F0335
:100A500001229A4043099B0003F1E023C3F80021DF
:100A600000BF70472DE9F05F80460D46164600270F
:100A700001F086FC074639462A46334601F0070056
:100A8000C0F1070ABAF1040F02D94FF0040A01E0DD
:100A9000C0F1070AD14600F1040ABAF1070F02D2E9
:100AA0004FF0000A01E0A0F1030AD4464FF0010A1A
:100AB0000AFA09FAAAF1010A0AEA020A0AFA0CFA7F
:100AC0004FF0010B0BFA0CFBABF1010B0BEA030B24
:100AD0004AEA0B042146404601F05AFCBDE8F09F6B
:100AE00000BF00F00702064B19684FF6FF031940DC
:100AF000044B0B4343EA0221014B196000BF7047CE
:100B00000CED00E00000FA0570B504460D460CB986
:100B1000012070BD5A48006800F00F00A84209D2B9
:100B200057490D700846006800F00F00A84201D038
:100B30000120EEE7207800F0020002281DD1207885
:100B400000F00400042805D14E48006840F4E0504D
:100B50004C490860207800F00800082805D1494871
:100B6000006840F46040474908604648006820F04B
:100B7000F000A168084343490860207800F00100B4
:100B800090B36068012807D13E4808380068C0F378
:100B90004040A0B90120BCE76068022807D139486D
:100BA00008380068C0F3406048B90120B1E7354813
:100BB00008380068C0F3400008B90120A9E73148AF
:100BC000006820F00300616808432E490860FFF7C1
:100BD000BFFE064609E0FFF7BBFE801B41F28831ED
:100BE000884202D9032094E707E02648006800F015
:100BF0000C006168B0EB810FEDD12148006800F076
:100C00000F00A84209D91E490D700846006800F07F
:100C10000F00A84201D001207BE7207800F00400FB
:100C2000042807D11748006820F4E050E168084321
:100C300014490860207800F00800082808D11148FD
:100C4000006820F46040216940EAC1000D49086055
:100C500000F052F80B49096801F0F001F02292FA15
:100C6000A2F2B2FA82F2D140074A515CC840074969
:100C7000086007480068FFF79BFE002049E7000076
:100C8000003C0240083802406C310008200000207F
:100C90001800002001480068704700002000002074
:100CA00000B5FFF7F7FF0749096801F4E0514FF479
:100CB000E05292FAA2F2B2FA82F2D140024A515CB8
:100CC000C84000BD083802407C31000800B5FFF77D
:100CD000E1FF0749096801F460414FF4604292FA6C
:100CE000A2F2B2FA82F2D140024A515CC84000BD81
:100CF000083802407C3100082DE9F0470024002527
:100D00000026A1462548006800F00C0020B1042808
:100D100005D008283AD105E0DFF8849039E0DFF803
:100D2000849036E01D48001F006800F03F041B4817
:100D3000001F006800F4800078B11A481749091FA5
:100D40000968C1F38811A0FB017001462246002307
:100D50003846FFF785FA05460EE011480F49091F8E
:100D60000968C1F38811A0FB0170014622460023E7
:100D70003846FFF775FA05460848001F0068C0F3BB
:100D80000140401C4600B5FBF6F902E0DFF8109088
:100D900000BF00BF4846BDE8F087000008380240A9
:100DA0000024F40000127A00F8B504460CB90120C2
:100DB000F8BD207800F00100002848D0F74800680E
:100DC00000F00C0004280DD0F448006800F00C007E
:100DD000082811D1F148001F006800F48000B0F528
:100DE000800F09D1ED4808380068C0F3404070B367
:100DF000606860BB0120DBE72079E849891F087043
:100E0000606890B1FFF7A4FD054606E0FFF7A0FD7E
:100E1000401B642801D90320CAE7E048083800686D
:100E2000C0F340400028F1D011E0FFF791FD0546E6
:100E300006E0FFF78DFD401B642801D90320B7E7CA
:100E4000D64808380068C0F340400028F1D1207827
:100E500000F00200022869D1D048006800F00C00C0
:100E600058B1CE48006800F00C00082821D1CB48CA
:100E7000001F006800F48000D8B9C848083800682E
:100E8000C0F3400020B1E068012801D001208FE7C5
:100E9000C2480838006820F0F800F82292FAA2F25E
:100EA000B2FA82F2216991400843BC4908390860CE
:100EB0003CE0E06828B30120B9490860FFF748FD2D
:100EC000054606E0FFF744FD401B022801D9032038
:100ED0006EE7B24808380068C0F340000028F1D03F
:100EE000AE480838006820F0F800F82292FAA2F222
:100EF000B2FA82F2216991400843A8490839086092
:100F000014E00020A6490860FFF722FD054606E030
:100F1000FFF71EFD401B022801D9032048E79F4828
:100F200008380068C0F340000028F1D1207800F0B4
:100F3000080008282CD16069A8B1012099490860EF
:100F4000FFF706FD054606E0FFF702FD401B0228FD
:100F500001D903202CE791486C300068C0F34000B1
:100F60000028F1D014E000208E490860FFF7F0FC63
:100F7000054606E0FFF7ECFC401B022801D90320E0
:100F800016E786486C300068C0F340000028F1D1B5
:100F9000207800F00400042874D100267F483830FF
:100FA000006800F0805090B900BF002000907B489E
:100FB0003830006840F08050784938310860084681
:100FC000006800F08050009000BF00BF0126764806
:100FD000006840F48070744908600846006800F4B6
:100FE0008070A8B90846006840F480700860FFF778
:100FF000AFFC054606E0FFF7ABFC401B022801D919
:101000000320D5E66848006800F480700028F2D01C
:10101000207A624968310870A068A0B1FFF798FC97
:10102000054608E0FFF794FC401B41F288318842F6
:1010300001D90320BCE6594868300068C0F340007D
:101040000028EFD013E0FFF783FC054608E0FFF728
:101050007FFC401B41F28831884201D90320A7E67A
:101060004E4868300068C0F340000028EFD1012EE0
:1010700007D14A483830006820F08050474938315D
:10108000086000BFA06900284BD04448006800F009
:101090000C0008285CD0A069022843D100204049F8
:1010A0000866FFF755FC054606E0FFF751FC401BBC
:1010B000642801D903207BE6384808380068C0F36B
:1010C00040600028F1D1D4E907010843616A40EA91
:1010D00081112C20005D41EA00610122A06AC2EB6F
:1010E000500041EA00402D49091F09682F4A11406C
:1010F00008432A49091F0860012029490866FFF7AB
:1011000027FC054606E0FFF723FC401B642801D9B5
:1011100003204DE6214808380068C0F340600028ED
:10112000F1D038E000201E490866FFF711FC0546A3
:1011300006E0FFF70DFC401B642801D9032037E6C9
:10114000164808380068C0F340600028F1D122E05A
:10115000A069012800D12BE61048001F016801F4A6
:101160008002E069824213D101F03F02206A82428C
:101170000ED1C1F38812606A904209D101F4403265
:10118000A06A824204D101F07062E06A824201D01A
:1011900001200DE600BF00200AE6000008380240EA
:1011A00000004742800E4742007000400080BCF0C3
:1011B00070B504462546681EB0F1807F01D301203A
:1011C0000FE0681E4FF0E02148610F214FF0FF3023
:1011D00001F0DEF800204FF0E0218861072008616F
:1011E000002070BD7047704730B502460B4600BF07
:1011F00092F83C00012801D1022030BD012082F884
:101200003C0000BF022082F83D001068446810686E
:10121000816824F070041868044310684460184D15
:101220001068A8421BD01068B0F1804F17D0154D40
:101230001068A84213D0144D1068A8420FD0134D67
:101240001068A8420BD0124D1068A84207D0114D6B
:101250001068A84203D0104D1068A84205D121F0B3
:1012600080015868014310688160012082F83D00C8
:1012700000BF002082F83C0000BF00BFBDE70000B7
:10128000000001400004004000080040000C004045
:1012900000040140004001400018004010B5044621
:1012A0000CB9012010BD94F83D0028B9002084F845
:1012B0003C00204600F026F8022084F83D00211D65
:1012C000206800F0B9FD012084F8460000BF84F8D2
:1012D0003E0001213F20015540200155412001558C
:1012E00000BF00BF012084F8420043200155442084
:1012F00001554520015500BF012084F83D00002024
:10130000D0E7000038B504460E492068884217D15E
:1013100000BF002000900C48006840F008000A4917
:1013200008600846006800F00800009000BF00BF99
:10133000002211463220FFF795FB3220FFF782FB97
:1013400038BD0000000C004040380240014691F8D2
:101350003D00012801D001207047022081F83D00A6
:101360000868C06840F001000B68D8601A4B086834
:1013700098421BD00868B0F1804F17D0174B08680F
:10138000984213D0164B086898420FD0154B086846
:1013900098420BD0144B0868984207D0134B08684A
:1013A000984203D0124B086898420CD108688068B4
:1013B00000F00702062A0CD00868006840F001001F
:1013C0000B68186005E00868006840F001000B68D1
:1013D00018600020C0E70000000001400004004049
:1013E00000080040000C00400004014000400140A3
:1013F0000018004001460868C06820F001000A6833
:10140000D06000BF0868006A41F21112104050B964
:101410000868006A9210104028B90868006820F037
:1014200001000A68106000BF012081F83D00002023
:1014300070472DE9F04104460D4600BF94F83C008A
:10144000012802D10220BDE8F081012084F83C008F
:1014500000BF022084F83D002068866826F07706E9
:1014600026F47F46206886602868502833D00CDC3C
:10147000202850D004DC00284BD0102851D149E05E
:10148000302849D040284CD139E060282DD0702830
:1014900007D0B0F5805F03D0B0F5005F41D10DE01B
:1014A00040E0D5E902136A68206800F031FD206849
:1014B000866846F077062068866033E0D5E9021337
:1014C0006A68206800F024FD2068806840F480404D
:1014D0002168886026E0EA686968206800F02CFDD1
:1014E0005021206800F01FFD1CE0EA686968206850
:1014F00000F035FD6021206800F015FD12E0EA687B
:101500006968206800F018FD4021206800F00BFD9C
:1015100008E000BF00BF00BF2968206800F003FD9D
:1015200000E000BF00BF012084F83D0000BF0020A4
:1015300084F83C0000BF00BF85E7704710B5044643
:1015400020680069C0F34000D8B12068C068C0F3CB
:101550004000B0B16FF002002168086101202077DF
:101560002068806900F0030018B12046FFF7E5FF0E
:1015700005E0204600F0ADF8204600F0ABF8002072
:10158000207720680069C0F38000D8B12068C06867
:10159000C0F38000B0B16FF0040021680861022040
:1015A00020772068806900F4407018B12046FFF76A
:1015B000C4FF05E0204600F08CF8204600F08AF8D1
:1015C0000020207720680069C0F3C000D8B12068EF
:1015D000C068C0F3C000B0B16FF0080021680861B6
:1015E000042020772068C06900F0030018B120466D
:1015F000FFF7A3FF05E0204600F06BF8204600F05F
:1016000069F80020207720680069C0F30010D8B185
:101610002068C068C0F30010B0B16FF010002168FE
:101620000861082020772068C06900F4407018B174
:101630002046FFF782FF05E0204600F04AF82046EA
:1016400000F048F8002020772068006900F00100D1
:1016500058B12068C06800F0010030B16FF001009F
:1016600021680861204600F037F820680069C0F35F
:10167000C01058B12068C068C0F3C01030B16FF01E
:101680008000216808612046FFF7ACFD20680069F2
:10169000C0F3801058B12068C068C0F3801030B12A
:1016A0006FF0400021680861204600F031F82068A2
:1016B0000069C0F3401058B12068C068C0F3401002
:1016C00030B16FF02000216808612046FFF78BFDE4
:1016D00010BD70477047000010B5044609492068E6
:1016E0000968096888420CD107480088401C0649EF
:1016F00008800846008805490988884201D101F020
:1017000063FB10BDF0000020FA000020F80000206C
:10171000704770477047000010B504462068C068E5
:1017200020F490702168C8602068406920F00100B2
:1017300021684861206B012805D12068C06820F02D
:1017400010002168C8602068406900F0400040280F
:101750001DD12068406920F0400021684861A06BDD
:1017600050B11148A16B0865A06BFEF7D9FFC0B15D
:10177000A06B016D884714E00020E085202084F8EC
:101780003E00002020632046FFF7C4FF09E0002050
:10179000E085202084F83E00002020632046FFF7EB
:1017A000B9FF002010BD00009B1F0008704700001B
:1017B00010B504462068C06820F0C0002168C860E9
:1017C0002068406900F0800080281BD120684069B3
:1017D00020F0800021684861606B50B10E48616B59
:1017E0000865606BFEF79CFFA0B1606B016D8847D8
:1017F00010E00020E084202084F83D002046FFF720
:10180000D5FF07E00020E084202084F83D0020463A
:10181000FFF7CCFF002010BDB71F00087047000085
:101820002DE9F84F0446206805682068C6682068DE
:1018300047694FF00009CA4605F00F09B9F1000FDA
:101840000AD105F0200038B106F0200020B1204672
:1018500000F0E8FBBDE8F88FB9F1000F72D007F097
:10186000010018B906F4907000286BD005F0010053
:1018700030B106F4807018B1206C40F00100206493
:1018800005F0040030B107F0010018B1206C40F001
:101890000200206405F0020030B107F0010018B129
:1018A000206C40F00400206405F0080048B106F008
:1018B000200010B907F0010018B1206C40F00800BA
:1018C0002064206C70B305F0200028B106F02000E1
:1018D00010B1204600F0A6FB20684069C0F3801AD2
:1018E000206C00F0080010B9BAF1000F23D0204698
:1018F00000F06DFB2068406900F04000402816D1E0
:101900002068406920F0400021684861A06B50B118
:101910005648A16B0865A06BFEF702FF10B1A06BE3
:10192000016D88470CE02046FFF778FF08E020466D
:10193000FFF774FF04E02046FFF770FF00202064EB
:1019400088E7FFE7206B012879D105F01000002817
:1019500075D006F01000002871D000BF0020009064
:1019600020680068009020684068009000BF00BFB9
:101970002068406900F04000402839D1A06B006821
:1019800040681FFA80F8B8F1000F30D0A08D4045B4
:101990002DDDA4F82E80A06BC069B0F5807F1FD02C
:1019A0002068C06820F480702168C86020684069A1
:1019B00020F00100216848612068406920F0400063
:1019C00021684861202084F83E00002020632068C0
:1019D000C06820F010002168C860A06BFEF74AFEC6
:1019E000A08DE28D801A81B22046FFF792FE31E78A
:1019F000A08DE18D401A1FFA80F8E08DE8B1B8F1B2
:101A0000000F1AD02068C06820F490702168C86068
:101A10002068406920F0010021684861202084F896
:101A20003E00002020632068C06820F0100021687C
:101A3000C86041462046FFF76CFE0BE7FFE705F064
:101A4000800030B106F0800018B1204600F05DFC47
:101A500000E705F0400030B106F0400018B1204624
:101A600000F0D0FAF6E600BFF4E60000871F000899
:101A700010B504460CB9012010BDA06900B100E00A
:101A800000BF94F83D0028B9002084F83C002046AF
:101A900000F028F8242084F83D002068C06820F475
:101AA00000502168C860204600F02EFB20680069C5
:101AB00020F49040216808612068406920F02A00E5
:101AC000216848612068C06840F400502168C860FF
:101AD00000202064202084F83D0084F83E0000208F
:101AE000CAE7000010B586B00446142101A8FEF72D
:101AF000B4FC1F492068884238D100BF0020009004
:101B00001C48006840F480201A49086008460068B4
:101B100000F48020009000BF00BF00BF00200090B4
:101B200014481038006840F002001249103908606B
:101B30000846006800F00200009000BF00BF4FF4AC
:101B40004060019002200290002003900320049046
:101B50000720059001A90848FEF7F6FD002211466E
:101B60002720FEF77FFF2720FEF76CFF06B010BD91
:101B700000480040403802400004024070B504466E
:101B80000D46164694F83E00202816D105B10EB930
:101B9000012070BD00BF94F83C00012801D1022053
:101BA000F7E7012084F83C0000BF002020633246A4
:101BB0002946204600F086FBEBE70220E9E700001B
:101BC00010B504460449206809680968884201D1B3
:101BD00001F002F910BD0000EC00002010B5034632
:101BE00093F83D00202823D101B10AB9012010BD8E
:101BF00000BF93F83C00012801D10220F7E7012043
:101C000083F83C0000BF19629A84DA8400201864CB
:101C1000212083F83D0000BF002083F83C0000BF76
:101C20001868C06840F080001C68E0600020DEE7B3
:101C30000220DCE710B504460449206809680968F9
:101C4000884201D101F0D0F810BD0000EC00002066
:101C500000BFFEE70149086070470000F000002067
:101C60000149086070470000EC00002000B587B013
:101C7000142102A8FEF7F1FB00BF002001901F48CD
:101C8000006840F080001D4908600846006800F0C8
:101C90008000019000BF00BF00BF002001900846F7
:101CA000006840F0020008600846006800F002008A
:101CB000019000BF00BF00BF0020019008460068EF
:101CC00040F0010008600846006800F00100019043
:101CD00000BF00BF002289140948FEF733FE4FF40D
:101CE000805002900120039000200490059002A9EA
:101CF0000348FEF729FD07B000BD00003038024060
:101D00000004024000B587B00020039004900590C5
:101D10000690019002901448144908603B204860E6
:101D20000021124881603221C1600021016181617E
:101D3000FFF7B4FA08B1FEF78DFC4FF48050039022
:101D400003A90A48FFF775FB08B1FEF783FC0020E2
:101D50000190029001A90548FFF746FA08B1FEF785
:101D600079FC07B000BD0000000C0040000100201D
:101D700010B50B480B4908604FF4E1304860002172
:101D800008488160C16001610C21416100218161CD
:101D9000C161FFF76DFE08B1FEF75CFC10BD0000ED
:101DA000004800404801002000BFFEE700BFFEE7FA
:101DB0007047704710B5FEF7D1FD10BD00B591B06A
:101DC000302105A8FEF749FB14216846FEF745FBC4
:101DD00001200590069002200B9041050C910821EE
:101DE0000D91F0210E9102210F910421109105A86F
:101DF000FEF7DAFF08B1FEF72DFC0F20009002205D
:101E00000190002002904FF4A05003904FF48050B6
:101E1000049003216846FEF777FE08B1FEF71AFC2E
:101E200011B000BD7047000010B50248FFF786FBF7
:101E300010BD00000001002010B50268294B984237
:101E40000ED0B0F1804F0BD0274B984208D0274BD3
:101E5000984205D0264B984202D0264B984203D197
:101E600022F070024B681A431E4B984220D0B0F10A
:101E7000804F1DD01C4B98421AD01C4B984217D053
:101E80001B4B984214D01B4B984211D01A4B9842CE
:101E90000ED01A4B98420BD0194B984208D0194BD0
:101EA000984205D0184B984202D0184B984203D163
:101EB00022F44072CB681A4322F080034C6943EA53
:101EC000040202608B68C3620B688362054B984210
:101ED00002D0084B984201D10B690363012343618F
:101EE00010BD000000000140000400400008004058
:101EF000000C00400004014000400140004401404B
:101F00000048014000180040001C00400020004034
:101F100030B50C46816821F47F4142EA0325254310
:101F20002943816030BD0A46816821F0700142F08A
:101F3000070319438160704730B50B461446026AA7
:101F4000056A25F001050562816921F0F00141EA89
:101F5000041122F00A021A438161026230BD30B5D9
:101F60000B461446056A25F0100505628169026A70
:101F700021F4704141EA043122F0A00242EA031246
:101F80008161026230BD70B50546AC6B0020E08512
:101F9000E0842046FFF742FC70BD70B50546AC6B8F
:101FA0000020E085202084F83E00002020632046A9
:101FB000FFF7B0FB70BD70B50546AC6B0020E08448
:101FC000202084F83D002046FFF7F0FB70BD01683B
:101FD000C96821F490710268D1600168496921F0F3
:101FE000010102685161016B012905D10168C968CD
:101FF00021F010010268D160202180F83E100021FC
:102000000163704710B504462068C06820F04000A6
:102010002168C860202084F83D002046FFF70AFEB2
:10202000002010BDF8B5044694F83E00222869D17E
:10203000A068B0F5805F0CD1206950B90025A66A70
:1020400020684068C0F308003080A06A801CA0624D
:1020500015E0A56A0026A068B0F5805F03D0A068EF
:1020600028B9206918B920684068287004E0206801
:10207000406800F07F002870A06A401CA062E08DDC
:10208000401E80B2E085A8BB2068C06820F0200018
:102090002168C8602068C06820F480702168C8602A
:1020A0002068406920F0010021684861202084F800
:1020B0003E00206B01281ED1002020632068C068EC
:1020C00020F010002168C8602068006800F010004F
:1020D00010280AD100BF00200090206800680090FE
:1020E00020684068009000BF00BFA18D2046FFF728
:1020F00010FB03E004E02046FFF762FD0020F8BD7E
:102100000020FCE70220FAE770B50446216809695F
:1021100021F44051E2681143226811612269A168EB
:10212000114362691143E26941EA02052168C96805
:1021300049F20C62914329432268D16021684969C0
:1021400021F44071A2691143226851615B4A216800
:10215000914203D05A4A2168914202D1FEF7B6FD5E
:1021600001E0FEF79DFDE169B1F5004F53D100EBB1
:10217000C00101EB001162685200B1FBF2F1642270
:10218000B1FBF2F10A0100EBC00101EB0011636841
:102190005B00B1FBF3F100EBC00303EB00136668D7
:1021A0007600B3FBF6F36426B3FBF6F303EBC3064A
:1021B00006EB0313A1EB8301322303EBC10164237C
:1021C000B1FBF3F101F0F80102EB410200EBC001B9
:1021D00001EB001163685B00B1FBF3F100EBC0039E
:1021E00003EB001366687600B3FBF6F36426B3FBDB
:1021F000F6F303EBC30606EB0313A1EB83013223D3
:1022000003EBC1016423B1FBF3F101F007011144B9
:102210002268916051E000EBC00101EB001162689F
:102220009200B1FBF2F200EBC00101EB0011636818
:102230009B00B1FBF3F16423B1FBF3F101EBC103AC
:1022400003EB0111A2EB8101322202EB01116422A6
:10225000B1FBF2F101F0F00100EBC00202EB001261
:1022600063689B00B2FBF3F26423B2FBF3F201EB71
:10227000021200EBC00101EB001163689B00B1FB8F
:10228000F3F100EBC00303EB00136668B600B3FB89
:10229000F6F36426B3FBF6F303EBC30606EB031376
:1022A000A1EB8301322303EB01116423B1FBF3F1B2
:1022B00001F00F0111442268916070BD00100140CF
:1022C0000014014010B5034699629A85DA85002012
:1022D0001864222083F83E0000BF002083F83C00F1
:1022E00000BF1868C06840F480701C68E06018681F
:1022F000406940F001001C6860611868C06840F0E7
:1023000020001C68E060002010BD014691F83D00EF
:10231000212828D18868B0F5805F0BD1086948B9B9
:102320000A6A1088C0F308000B685860086A801CAD
:10233000086205E00B6A581C086218780B68586040
:10234000C88C401E80B2C88458B90868C06820F0A4
:1023500080000B68D8600868C06840F040000B68D7
:10236000D860002070470220FCE7000010B502484A
:10237000FFF756FA10BD00004801002000BFFEE73D
:1023800002480068C0F30220704700000CED00E036
:1023900010B5002804DB0A07130E054A135406E0A3
:1023A0000A07140E034A00F00F031B1FD45410BD7C
:1023B00000E400E018ED00E010B5002406480078C5
:1023C000012806D1054800688047002002490870AE
:1023D00000E00624204610BD260000202C0000202E
:1023E0002DE9F05F06460D464FF0000B28880528C2
:1023F00048D170784FEA0029B07840EA090909F11C
:1024000001001FFA80F9F078040230790443012CAE
:1024100035DBB4F5FA6F32DA374600202880012028
:1024200007F8010B2888401C288004F0070040B101
:102430002046E11704EB5171C910491C01F0FF0857
:1024400005E02046E11704EB5171C1F3C70807F816
:10245000018B2888401C28800023224649463846A4
:1024600000F03EFC8246BAF1000F04D0504600F066
:1024700099FC834608E028884044288004E04FF017
:10248000030B01E04FF0030B5846BDE8F09F2DE928
:10249000F05F06460D464FF0000B2888052847D10F
:1024A00070784FEA0029B07840EA090909F1010083
:1024B0001FFA80F9F078040230790443012C34DBF0
:1024C000B4F5FA6F31DA374600202880022007F889
:1024D000010B2888401C288004F0070040B12046EA
:1024E000E11704EB5171C910491C01F0FF0805E028
:1024F0002046E11704EB5171C1F3C70807F8018BBF
:102500002888401C288022464946384600F0ECFBCB
:102510008246BAF1000F04D0504600F043FC8346D7
:1025200008E028884044288004E04FF0030B01E0D5
:102530004FF0030B5846BDE8F09F2DE9F0470546E4
:102540000C464FF0000A2088052837D168784FEAFA
:102550000028A87840EA080808F101001FFA80F86E
:10256000E87806022E79012E25DB7D2E23DC2F460E
:1025700000202080032007F8010B2088401C2080C9
:102580007006000E07F8010B2088401C20800023F5
:1025900032464146384600F0AAFB8146B9F1000FA9
:1025A00004D0484600F0FEFB824609E0208800EB9C
:1025B0004600208004E04FF0030A01E04FF0030AD8
:1025C0005046BDE8F0872DE9F04705460C464FF030
:1025D000000A2088052837D168784FEA0028A878B3
:1025E00040EA080808F101001FFA80F8E8780602BE
:1025F00028790643012E24DB7D2E22DA2F46002087
:102600002080042007F8010B2088401C20807006E1
:10261000000E07F8010B2088401C208032464146FE
:10262000384600F069FB8146B9F1000F04D04846F6
:1026300000F0B8FB824609E0208800EB46002080CD
:1026400004E04FF0030A01E04FF0030A5046BDE8F2
:10265000F0872DE9FC5F04460D4600200090288895
:102660000A285DDB60784FEA002AA07840EA0A0A6F
:102670000AF101001FFA80FAE07806022079064389
:1026800060794FEA002BA07940EA0B0B0BF10100B7
:102690001FFA80FBE0790702207A0743607A0190F5
:1026A000012E3BDB7D2E39DC012F37DB792F35DC2A
:1026B00079000198814231D101233A46594604F10B
:1026C0000A0000F014FB8146B9F1000F1ED1A046AC
:1026D00000202880172008F8010B2888401C28803B
:1026E0007006000E08F8010B2888401C2880002383
:1026F00032465146404600F0FAFA8146B9F1000FE1
:1027000004D12888022101FB06002880B9F1000FBE
:1027100006D0484600F046FB009001E00320009000
:102720000098BDE8FC9F000070B505460C460648C1
:1027300002880649681CFDF74BFE03480088401CD0
:102740002080002070BD0000FC0000208C020020D2
:102750002DE9F84304460F464FF000083888052855
:1027600029D160780502A0780543681C85B22079DC
:10277000F0B9E078FF2801D0E078C8B900208DF8E2
:102780000100E078FF2803D101208DF8000002E06D
:1027900000208DF8000001231A462946684600F003
:1027A0009FFA06464EB1304600F0FCFA804604E03F
:1027B0004FF0030801E04FF003084046BDE8F883FE
:1027C0002DE9F04104460F464FF0000838880528EF
:1027D00012D160780502A0780543681C85B20123F8
:1027E0001A462946E01C00F082FA064636B1304609
:1027F00000F0D8FA804601E04FF003084046BDE8FB
:10280000F0812DE9F05F05460E464FF0000B308851
:10281000052839DD68780702A8780743781C87B255
:10282000E87804022879044395F805A004F007002D
:1028300040B12046E11704EB5171C910491C01F069
:10284000FF0805E02046E11704EB5171C1F3C7080A
:10285000012C16DBB4F5F66F13DCD04511D1012342
:1028600022463946A81D00F03BFA8146B9F1000F17
:1028700004D0484600F096FA834607E005203080F1
:1028800004E04FF0030B01E04FF0030B5846BDE8A6
:10289000F09F2DE9F04704460E464FF0000A3088BD
:1028A000062828DB60780702A0780743781C87B2E7
:1028B000E07805022079054394F80590012D17DB97
:1028C000782D15DC6806000E484511D101232A46F3
:1028D0003946A01D00F00BFA8046B8F1000F04D075
:1028E000404600F05FFA824607E00520308004E0B1
:1028F0004FF0030A01E04FF0030A5046BDE8F087AD
:102900002DE9F04705460C4616461F46DDF8209097
:102910004FF000081CB1012C01DBF72C02DD4FF059
:10292000020835E01C48047005BB1C481C490860BF
:102930001C481D4908601D481D4908601D481E4966
:10294000086000201D4908601D481E4908601E4897
:102950001E4908601E481F4908604B463A463146EA
:102960000D48007800F0D8F8804602E04FF00208E9
:1029700000BF00BFB8F1000F0AD100F0B1FA10B9E2
:102980004FF0030804E01448057001201349087053
:102990004046BDE8F087000024000020A52C000878
:1029A0002C000020C92C000830000020152C000845
:1029B00028000020712B000834000020380000207F
:1029C000652F00083C000020B530000840000020C2
:1029D000353000084400002025000020260000209B
:1029E00038B500254148007808B1062038BD684652
:1029F00000F064FA012877D19DF8000030B1012879
:102A000005D0022818D003286DD16BE06BE0384A5E
:102A100038493948394B1B68984705465DB93648EF
:102A2000007837490978884202D03348007810B9D5
:102A3000022000F05DFA56E02E4800680078314927
:102A40000870012030490870002417E02F4810F862
:102A5000340000B914E02D4810F8340029490978F1
:102A600088420AD1294800EBC40021494268214824
:102A7000006890472449087002E0641C102CE5DBD4
:102A800000BF1D48007858B31F480078C8B1002027
:102A9000174908801B48007840F0800114480288DC
:102AA0000088401C124B1880124800688154164858
:102AB0000278184601880088401C18800D4800687C
:102AC000425413480078012800D100BF084802880A
:102AD000084801680A4800780E4B1B68984705466D
:102AE00001E001E000BF00BF00207FE726000020DA
:102AF000D6000020D0000020D400002034000020A8
:102B000024000020D5000020D80000205000002024
:102B100025000020280000202DE9F04781460E46C0
:102B200014461F464FF00008FDF78AFD3B46082279
:102B30002146304600F0FAF9012802D04FF0030890
:102B40000FE0B4F5964F01D9232503E06000074953
:102B5000B1FBF0F5A8B200F0FDF9012801D04FF06B
:102B60000308FDF77BFD4046BDE8F087A07F170016
:102B70002DE9F04104460D4616460027FDF760FD9D
:102B800012480088FF2800DC04E09B2210A116A058
:102B9000FDF7DEFB0D480088042810DB0B48018898
:102BA0001B4800F029F950B91948007820700748EF
:102BB0000088C01E30801648401C286000E00527B1
:102BC000FDF74CFD3846BDE8F0810000E60000202E
:102BD0002E2E5C6D6F646275735C7274755C6D62D1
:102BE0007274752E630000007573526376427566C9
:102BF000666572506F73203C204D425F5345525FB3
:102C00005044555F53495A455F4D415800000000FC
:102C10008C0100202DE9F04105460E4617464FF085
:102C20000008FDF70DFD1A480078012829D1701E13
:102C30001849086001201849088016480068057086
:102C40000846008838440880084601881148006812
:102C500000F0D2F8044610490888411C0E4B198038
:102C60000E490C54221219460888411C19800B4940
:102C70000A5401200A4908700121002000F0D8F808
:102C800001E04FF00508FDF7E9FC4046BDE8F081A2
:102C9000DD000020E0000020E40000208C01002086
:102CA000DC00002010B5FDF7CBFC002005490870C2
:102CB0000021012000F0BCF800F0F2F8FDF7CEFC96
:102CC00010BD0000DD00002010B5FDF7B9FC0021AB
:102CD000084600F0ADF800F0DBF8FDF7BFFC10BDD2
:102CE00010B50446002010BD03460020704710B503
:102CF0000446002010BD000030B503460025B1F5A4
:102D00007A7F13DB8818B0F57C7F0FDC09480088D8
:102D10000C1A08E0AA2003F8010B552003F8010B58
:102D2000641C501E82B2002AF4DC00E00125002061
:102D300030BD000000000020FDF71CFEFFF73EF84C
:102D4000FEF794FFFEF7DEFFFFF712F800F012F82F
:102D50000DE0FFF745FEFDF7FBFD4FF47A71B0FB88
:102D6000F1F003498881FDF7F3FD0149C881F0E7DF
:102D70000200002038B50948FEF76CFF0848FEF74E
:102D80006FFF00204FF4E133024601210090FFF76E
:102D9000B7FD0446FFF710FB044638BD00010020D4
:102DA00048010020014621B1012904D0072906D19C
:102DB00003E0002005E0022003E0062001E00420FB
:102DC00000BF00BF7047000010B502480068804790
:102DD00010BD00004400002010B502480068804784
:102DE00010BD00003C00002010B50248006880477C
:102DF00010BD00004000002070B502460C46FF25C3
:102E0000FF2309E012F8010B80EA03010648405C49
:102E100080EA05030548455C201EA4F10106B4B212
:102E2000F0D143EA052070BD8431000884320008E7
:102E300070B505460C4625B912480068FEF76CFCD3
:102E40000BE000224FF480510F48FDF77BFD01227B
:102E50000E490C480068FEF791FE24B90948006845
:102E6000FEF7A6FC0CE00748006890F83D0020281B
:102E700006D10122C1010448FDF764FDFFF7B4FF4C
:102E800070BD0000EC00002000040240F7000020AC
:102E900010B502480068FEF7ADFA10BDF000002042
:102EA00010B500200349088003480068FEF74EFA79
:102EB00010BD0000FA000020F000002001460020B4
:102EC000054A127832B1054A12780A700022024B84
:102ED0001A70012070470000F5000020F400002067
:102EE000002002490870012070470000F500002012
:102EF00001460120024A107002480170012070470B
:102F0000F5000020F400002010B5044605480078C4
:102F100020700122034904480068FEF72FFE0120BB
:102F200010BD0000F7000020EC00002010B50446A2
:102F3000012010BD10B5044604480470012201466A
:102F400003480068FEF74AFE012010BDF60000208D
:102F5000EC0000200146024801800120704700007B
:102F6000F800002038B500242148007800B904E0BA
:102F7000E42220A125A0FDF7EBF96846FFF7C4FF86
:102F80002948007830B101280AD0022819D0032836
:102F90002BD102E0FFF784FF27E0FFF781FF24E059
:102FA0000020224908809DF800200888411C1F4B02
:102FB00019801F490A5402201B490870FFF770FF4F
:102FC00013E01A480088FF2809DC9DF80020174903
:102FD0000888411C154B198015490A5402E003204A
:102FE00011490870FFF75CFF00BF00BF204638BDE5
:102FF000DC0000202E2E5C6D6F646275735C727451
:10300000755C6D627274752E6300000065536E64AA
:103010005374617465203D3D2053544154455F54C1
:10302000585F49444C450000DD000020E6000020C8
:103030008C01002010B500241648007820B1022829
:1030400007D003280BD109E00020FFF751FF044609
:1030500018E00120FFF74CFF044613E012E00D4892
:10306000007838B10B480078022803D0094800786E
:10307000032800D105E04FF4AC7207A10C48FDF71E
:1030800067F900BF00BFFFF703FF01200149087087
:10309000204610BDDD0000202E2E5C6D6F64627531
:1030A000735C7274755C6D627274752E63000000DF
:1030B0008433000810B500241B480078012800D193
:1030C00005E040F21F1219A11EA0FDF741F92448A6
:1030D000007810B1012824D104E000210120FFF77D
:1030E000A7FE1EE01F48008878B11F4909680878CC
:1030F000FFF720FF1C480068401C1B490860194866
:103100000088401E174908800AE00320FFF7F0FE00
:10311000044600210120FFF78BFE002010490870B3
:1031200000BF00BF204610BDDD0000202E2E5C6DCC
:103130006F646275735C7274755C6D627274752E07
:1031400063000000655263765374617465203D3DF1
:103150002053544154455F52585F49444C45000048
:10316000DC000020E4000020E0000020000000005F
:103170000000000001020304060708090000000027
:103180000102030400C1814001C0804101C08041AF
:1031900000C1814001C0804100C1814000C1814027
:1031A00001C0804101C0804100C1814000C1814017
:1031B00001C0804100C1814001C0804101C0804107
:1031C00000C1814001C0804100C1814000C18140F7
:1031D00001C0804100C1814001C0804101C08041E7
:1031E00000C1814000C1814001C0804101C08041D7
:1031F00000C1814001C0804100C1814000C18140C7
:1032000001C0804101C0804100C1814000C18140B6
:1032100001C0804100C1814001C0804101C08041A6
:1032200000C1814000C1814001C0804101C0804196
:1032300000C1814001C0804100C1814000C1814086
:1032400001C0804100C1814001C0804101C0804176
:1032500000C1814001C0804100C1814000C1814066
:1032600001C0804101C0804100C1814000C1814056
:1032700001C0804100C1814001C0804101C0804146
:1032800000C1814000C0C101C30302C2C60607C716
:1032900005C5C404CC0C0DCD0FCFCE0E0ACACB0B86
:1032A000C90908C8D81819D91BDBDA1A1EDEDF1FB6
:1032B000DD1D1CDC14D4D515D71716D6D21213D3A6
:1032C00011D1D010F03031F133F3F23236F6F73756
:1032D000F53534F43CFCFD3DFF3F3EFEFA3A3BFB46
:1032E00039F9F83828E8E929EB2B2AEAEE2E2FEFF6
:1032F0002DEDEC2CE42425E527E7E62622E2E32366
:10330000E12120E0A06061A163A3A26266A6A76795
:10331000A56564A46CACAD6DAF6F6EAEAA6A6BAB05
:1033200069A9A86878B8B979BB7B7ABABE7E7FBF35
:103330007DBDBC7CB47475B577B7B67672B2B37325
:10334000B17170B0509091519353529296565797D5
:10335000559594549C5C5D9D5F9F9E5E5A9A9B5BC5
:1033600099595898884849894B8B8A4A4E8E8F4F75
:103370008D4D4C8C448485458747468682424383E5
:1033800041818040282065526376537461746520C2
:103390003D3D2053544154455F52585F494E495476
:1033A0002029207C7C202820655263765374617428
:1033B00065203D3D2053544154455F52585F524370
:1033C000562029207C7C2028206552637653746126
:1033D0007465203D3D2053544154455F52585F452C
:1033E00052524F52202900000834000800000020EB
:1033F00000010000C001000808350008000100209D
:10340000100E0000DC010008E8034D006F006400AE
:103410006200750073000000000000000000000062
:1034200010000000010000000024F4000000020071
:10343000000000000000000000000000000000008C
:10344000000000000000000000000000000000007C
:103450000000000000000000110000002927000803
:1034600004000000C7250008030000003B250008F9
:10347000100000009328000806000000C127000883
:10348000170000005326000801000000E123000897
:1034900005000000512700080F0000000328000865
:1034A000020000008F24000800000000000000005F
:1034B000000000000000000000000000000000000C
:1034C00000000000000000000000000000000000FC
:1034D00000000000000000000000000000000000EC
:1034E00000000000000000000000000000000000DC
:1034F00000000000000000000000000000000000CC
:083500000000000000000000C3
:040000050800018569
:00000001FF
